:020000040000FA
:100000000C9462000C948A000C948A000C948A0070
:100010000C948A000C948A000C948A000C948A0038
:100020000C948A000C948A000C948A000C948A0028
:100030000C948A000C948A000C948A000C948A0018
:100040000C94A6040C948A000C9416050C94F004ED
:100050000C948A000C948A000C948A000C948A00F8
:100060000C948A000C948A000000000024002700F1
:100070002A0000000000250028002B0000000000DE
:1000800023002600290004040404040404040202DA
:100090000202020203030303030301020408102007
:1000A0004080010204081020010204081020000012
:1000B0000008000201000003040700000000000027
:1000C0000000480511241FBECFEFD8E0DEBFCDBF32
:1000D00011E0A0E0B1E0EAE5F5E102C005900D9283
:1000E000AA34B107D9F722E0AAE4B1E001C01D9219
:1000F000A130B207E1F710E0C2E6D0E004C02197DA
:10010000FE010E948009C136D107C9F70E94870508
:100110000C94AB0A0C940000833081F028F48130F9
:1001200099F08230A9F008958730A9F08830C9F09D
:100130008430B1F4809180008F7D03C08091800075
:100140008F7780938000089584B58F7784BD08955C
:1001500084B58F7DFBCF8091B0008F778093B00006
:1001600008958091B0008F7DF9CFCF93DF93282F32
:1001700030E0F901E255FF4F8491F901E656FF4F57
:10018000D491F901EA57FF4FC491CC23A1F081111A
:100190000E948C00EC2FF0E0EE0FFF1FE458FF4FA1
:1001A000A591B491EC91ED2381E090E009F480E019
:1001B000DF91CF91089580E090E0FACF1F93CF9325
:1001C000DF93282F30E0F901E255FF4F8491F901C8
:1001D000E656FF4FD491F901EA57FF4FC491CC2363
:1001E000A9F0162F81110E948C00EC2FF0E0EE0F89
:1001F000FF1FEE58FF4FA591B4918FB7F894EC9183
:10020000111108C0D095DE23DC938FBFDF91CF9111
:100210001F910895DE2BF8CF3FB7F89480914F01DE
:1002200090915001A0915101B091520126B5A89B27
:1002300005C02F3F19F00196A11DB11D3FBFBA2F78
:10024000A92F982F8827BC01CD01620F711D811D38
:10025000911D42E0660F771F881F991F4A95D1F7BD
:1002600008958F929F92AF92BF92CF92DF92EF92BA
:10027000FF926B017C010E940C014B015C01C114D7
:10028000D104E104F104B9F00E940C016819790964
:100290008A099B09683E73408105910580F321E03E
:1002A000C21AD108E108F10888EE880E83E0981E92
:1002B000A11CB11CE4CFFF90EF90DF90CF90BF90D6
:1002C000AF909F908F900895AF92BF92CF92DF92A0
:1002D000EF92FF920F931F93CF93DF936C017B01FB
:1002E0008B01040F151FEB015E01AE18BF08C0178C
:1002F000D10759F06991D601ED91FC910190F081FF
:10030000E02DC6010995892B79F7C501DF91CF91C1
:100310001F910F91FF90EF90DF90CF90BF90AF9023
:100320000895FC01538D448D252F30E0842F90E0FB
:10033000821B930B541710F0CF96089501970895E0
:10034000FC01918D828D981761F0A28DAE0FBF2FA9
:10035000B11D5D968C91928D9F5F9F73928F90E0FF
:1003600008958FEF9FEF0895FC01918D828D98176E
:1003700031F0828DE80FF11D858D90E008958FEFAB
:100380009FEF0895FC01918D228D892F90E0805C74
:100390009F4F821B91098F739927089583E591E000
:1003A0000E94C20121E0892B09F420E0822F0895E8
:1003B00080E090E0892B29F00E94CE0181110C94FD
:1003C00000000895FC01A48DA80FB92FB11DA35AF8
:1003D000BF4F2C91848D90E001968F739927848F65
:1003E000A689B7892C93A089B1898C918370806488
:1003F0008C93938D848D981306C00288F389E02D29
:1004000080818F7D80830895EF92FF920F931F93D9
:10041000CF93DF93EC0181E0888F9B8D8C8D9813B7
:100420001AC0E889F989808185FF15C09FB7F894C3
:10043000EE89FF896083E889F9898081837080640F
:1004400080839FBF81E090E0DF91CF911F910F915A
:10045000FF90EF900895F62E0B8D10E00F5F1F4F69
:100460000F731127E02E8C8D8E110CC00FB607FC78
:10047000FACFE889F989808185FFF5CFCE010E9406
:10048000E201F1CFEB8DEC0FFD2FF11DE35AFF4F91
:10049000F0829FB7F8940B8FEA89FB898081806294
:1004A000CFCFCF93DF93EC01888D8823B9F0AA8951
:1004B000BB89E889F9898C9185FD03C0808186FD1F
:1004C0000DC00FB607FCF7CF8C9185FFF2CF80816E
:1004D00085FFEDCFCE010E94E201E9CFDF91CF9100
:1004E00008950895FC0101900020E9F73197AF01CC
:1004F000481B590BBC0183E591E00C9464018F9279
:100500009F92AF92BF920F931F93CF93DF93CDB77C
:10051000DEB7A1970FB6F894DEBF0FBECDBF19A20C
:10052000423008F44AE08E010F5D1F4F842E912C5B
:10053000B12CA12CA50194010E943F09E62FB9011D
:10054000CA01EA30F4F4E05DD801EE938D01232B6B
:10055000242B252B79F790E080E0109719F0CD013E
:100560000E947202A1960FB6F894DEBF0FBECDBFF7
:10057000DF91CF911F910F91BF90AF909F908F907F
:100580000895E95CE1CF4F925F926F927F928F92D4
:100590009F92AF92BF92CF92DF92EF92FF920F9312
:1005A0001F93CF936B017C01742EAC019B010E94C1
:1005B0003A09882399F080E291E0CF911F910F9141
:1005C000FF90EF90DF90CF90BF90AF909F908F9073
:1005D0007F906F905F904F900C947202460157018C
:1005E000E894B7F82FEF3FEF4FE75FE7C501B4019D
:1005F0000E943A0981110DC02FEF3FEF4FE75FE7EF
:10060000C501B4010E94690718161CF484E291E048
:10061000D4CF2FEF3FEF4FE75FE4C701B6010E9451
:10062000C80818161CF488E291E0C7CF2FEF3FEFFF
:100630004FE75FECC701B6010E94690787FDF3CF62
:1006400020E030E0A901C701B6010E94690710E06F
:1006500000E087FF0AC06DE283E591E00E9404029A
:100660008C01F7FAF094F7F8F094C0E060E070E0E5
:1006700080E09FE37C1641F020E030E040E251E46E
:100680000E946E07CF5FF6CFA70196010E94FD067C
:100690002B013C010E94E7074B015C014AE00E94EC
:1006A0007F027C01E00EF11ECC23C1F1C501B40133
:1006B0000E9416089B01AC01C301B2010E94FC0616
:1006C0004B015C016EE283E591E00E940402E80EBA
:1006D000F91EC15018F120E030E040E251E4C501BC
:1006E000B4010E94CD082B013C010E94E7074B0199
:1006F000B12CA12C4AE0C501B4010E947F02E80E92
:10070000F91EC501B4010E9416089B01AC01C3018A
:10071000B2010E94FC064B015C01DBCFC701CF9107
:100720001F910F91FF90EF90DF90CF90BF90AF900F
:100730009F908F907F906F905F904F900895CF9390
:10074000DF930E94C302EC018CE291E00E947202EE
:100750008C0F9D1FDF91CF910895FF920F931F93F0
:10076000CF93DF93F82E062FC7E0D0E010E061E0D2
:10077000802F0E94DE008F2D0E94B5000C2E01C03C
:10078000880F0A94EAF7182B60E0802F0E94DE00A1
:10079000219768F7812FDF91CF911F910F91FF90E3
:1007A0000895EF92FF920F931F93CF93DF93809161
:1007B000F3010E94B500892B31F060E070E0CB01BD
:1007C0000E943101F4CFDFB7F8946091F20180917B
:1007D000F3010E94AD03082F6091F2018091F301B3
:1007E0000E94AD03C82F6091F2018091F3010E9435
:1007F000AD03182FF12CE12C8091F4018E151F040C
:1008000079F070F061E08091F2010E94DE0060E01A
:100810008091F2010E94DE008FEFE81AF80AECCF17
:10082000DFBF6C2F70E090E080E0982F872F762F4D
:100830006627802B612B000F000B10E030E020E0DA
:10084000302F222711270027602B712B822B932B0F
:10085000DF91CF911F910F91FF90EF900895CF926C
:10086000DF92EF92FF92CF93DF93C82FC12CD12C50
:100870007601D0E00E94D103C60ED71EE81EF91EF5
:1008800060E070E0CB010E943101DF5FCD13F2CF59
:100890002C2F30E050E040E0C701B6010E94610912
:1008A000CA01B901DF91CF91FF90EF90DF90CF9017
:1008B00008950F931F93CF93DF930E942F04C0EFEF
:1008C000D1E00D811E812F813885601B710B820B59
:1008D000930B0E94180829853A854B855C850E94F8
:1008E0006E07DF91CF911F910F910895CF92DF9204
:1008F000EF92FF92CF93DF936B017C01F7FE1FC055
:100900006DE283E591E00E940402EC0166277727FF
:10091000CB016C197D098E099F094AE00E947F0274
:10092000C80FD91F8CE291E00E9472028C0F9D1FAC
:10093000DF91CF91FF90EF90DF90CF9008954AE044
:100940000E947F02EC01EECF0C94220A1F920F92BC
:100950000FB60F9211242F933F938F939F93AF93D2
:10096000BF9380914B0190914C01A0914D01B091AA
:100970004E0130914A0123E0230F2D3758F501969F
:10098000A11DB11D20934A0180934B0190934C010E
:10099000A0934D01B0934E0180914F019091500171
:1009A000A0915101B09152010196A11DB11D8093FA
:1009B0004F0190935001A0935101B0935201BF9108
:1009C000AF919F918F913F912F910F900FBE0F90FC
:1009D0001F90189526E8230F0296A11DB11DD2CFB6
:1009E0001F920F920FB60F9211242F933F934F93A4
:1009F0005F936F937F938F939F93AF93BF93EF9387
:100A0000FF9383E591E00E94E201FF91EF91BF9196
:100A1000AF919F918F917F916F915F914F913F9196
:100A20002F910F900FBE0F901F9018951F920F924D
:100A30000FB60F9211242F938F939F93EF93FF93F1
:100A4000E0916301F09164018081E0916901F0918E
:100A50006A0182FD1BC0908180916C018F5F8F7352
:100A600020916D01821741F0E0916C01F0E0ED5AA8
:100A7000FE4F958F80936C01FF91EF919F918F9125
:100A80002F910F900FBE0F901F9018958081F4CF7B
:100A9000E3E5F1E01382128288EE93E0A0E0B0E09B
:100AA00084839583A683B7838AE091E091838083D2
:100AB00085EC90E09587848784EC90E09787868723
:100AC00080EC90E0918B808B81EC90E0938B828B1B
:100AD00082EC90E0958B848B86EC90E0978B868BF4
:100AE000118E128E138E148EE0EFF1E08CE191E006
:100AF00091838083158216821782108680E090E0B1
:100B0000A0E8BFE381879287A387B487089578948C
:100B100084B5826084BD84B5816084BD85B5826002
:100B200085BD85B5816085BD80916E0081608093B3
:100B30006E0010928100809181008260809381001C
:100B4000809181008160809381008091800081602C
:100B5000809380008091B10084608093B100809187
:100B6000B00081608093B00080917A0084608093AF
:100B70007A0080917A00826080937A0080917A0076
:100B8000816080937A0080917A00806880937A00F7
:100B90001092C100E0916301F091640192E09083B2
:100BA000E0915F01F09160011082E0916101F091AC
:100BB000620183E3808310926B01E0916701F09101
:100BC000680186E08083E0916501F0916601808193
:100BD00080618083E0916501F09166018081886089
:100BE0008083E0916501F091660180818068808357
:100BF000E0916501F091660180818F7D808383E0C3
:100C00008093F2019093F301EDE9F0E02491E9E89B
:100C1000F0E08491882399F090E0880F991FFC01FF
:100C2000E859FF4FA591B491FC01EE58FF4F859113
:100C300094918FB7F894EC91E22BEC938FBF809155
:100C4000F30190E0FC01E656FF4F24918A579F4F35
:100C5000FC0184918823C1F090E0880F991FFC016A
:100C6000E859FF4FC591D491FC01EE58FF4FA59173
:100C7000B4919FB7F8948881E22FE0958E23888302
:100C80008C91E823EC939FBF81E08093F4010E9454
:100C9000D1030E94760484E10E942F040E9476040E
:100CA00085E00E942F040091F5011091F60120913A
:100CB000F7013091F801601B710B820B930B0E94BE
:100CC000180842E050E00E949F0385E00E9459040A
:100CD00041E050E00E949F0380E090EAAEE0B5E47E
:100CE0008093F9019093FA01A093FB01B093FC016A
:100CF0008AE00E942F040E9418080E94E007609377
:100D0000F5017093F6018093F7019093F8010E942A
:100D1000D1030E94760484E10E942F040E9476048D
:100D200085E00E942F040091F5011091F6012091B9
:100D3000F7013091F801601B710B820B930B0E943D
:100D4000180842E050E00E949F0385E00E94590489
:100D500041E050E00E949F038FE291E00E94720206
:100D60008CE291E00E947202C0E0D0E089E391E061
:100D70000E94720262E370E080E090E00E94310124
:100D800081E00E94590441E050E00E949F0362E329
:100D900070E080E090E00E94310180E491E00E94E8
:100DA000720262E370E080E090E00E9431018AE02C
:100DB0000E94590441E00E94C30260E08091F20168
:100DC0000E94DE0061E08091F2010E94DE006CE290
:100DD00071E080E090E00E94310160E08091F201DA
:100DE0000E94DE00209711F20E94CE01882309F4B0
:100DF000BDCF0E940000BACF5058BB27AA270E943F
:100E000014070C948E080E94800838F00E9487080E
:100E100020F039F49F3F19F426F40C947D080EF469
:100E2000E095E7FB0C947708E92F0E949F0858F3A0
:100E3000BA17620773078407950720F079F4A6F5BF
:100E40000C94C1080EF4E0950B2EBA2FA02D0B01C7
:100E5000B90190010C01CA01A0011124FF27591BFF
:100E600099F0593F50F4503E68F11A16F040A22F05
:100E7000232F342F4427585FF3CF46953795279576
:100E8000A795F0405395C9F77EF41F16BA0B620B75
:100E9000730B840BBAF09150A1F0FF0FBB1F661FBC
:100EA000771F881FC2F70EC0BA0F621F731F841FFF
:100EB00048F4879577956795B795F7959E3F08F025
:100EC000B0CF9395880F08F09927EE0F97958795E7
:100ED00008950E94530808F481E008950E94820753
:100EE0000C948E080E94870858F00E94800840F0F9
:100EF00029F45F3F29F00C94770851110C94C20833
:100F00000C947D080E949F0868F39923B1F3552340
:100F100091F3951B550BBB27AA276217730784070C
:100F200038F09F5F5F4F220F331F441FAA1FA9F3A2
:100F300035D00E2E3AF0E0E832D091505040E69590
:100F4000001CCAF72BD0FE2F29D0660F771F881FF1
:100F5000BB1F261737074807AB07B0E809F0BB0BE4
:100F6000802DBF01FF2793585F4F3AF09E3F5105F8
:100F700078F00C9477080C94C2085F3FE4F3983E35
:100F8000D4F3869577956795B795F7959F5FC9F7E1
:100F9000880F911D9695879597F90895E1E0660F62
:100FA000771F881FBB1F621773078407BA0720F0DB
:100FB000621B730B840BBA0BEE1F88F7E095089544
:100FC0000E94E7076894B1110C94C20808950E942A
:100FD000A70888F09F5798F0B92F9927B751B0F01C
:100FE000E1F0660F771F881F991F1AF0BA95C9F7AD
:100FF00014C0B13091F00E94C108B1E008950C9482
:10100000C108672F782F8827B85F39F0B93FCCF334
:10101000869577956795B395D9F73EF49095809529
:10102000709561957F4F8F4F9F4F0895E89409C049
:1010300097FB3EF490958095709561957F4F8F4F0B
:101040009F4F9923A9F0F92F96E9BB279395F69521
:10105000879577956795B795F111F8CFFAF4BB0F9F
:1010600011F460FF1BC06F5F7F4F8F4F9F4F16C003
:10107000882311F096E911C0772321F09EE8872F8D
:10108000762F05C0662371F096E8862F70E060E049
:101090002AF09A95660F771F881FDAF7880F9695C2
:1010A000879597F90895990F0008550FAA0BE0E866
:1010B000FEEF16161706E807F907C0F0121613061A
:1010C000E407F50798F0621B730B840B950B39F45A
:1010D0000A2661F0232B242B252B21F408950A26C0
:1010E00009F4A140A6958FEF811D811D089597F900
:1010F0009F6780E870E060E008959FEF80EC0895BE
:1011000000240A94161617061806090608950024E6
:101110000A9412161306140605060895092E039460
:10112000000C11F4882352F0BB0F40F4BF2B11F4D4
:1011300060FF04C06F5F7F4F8F4F9F4F089557FD33
:101140009058440F551F59F05F3F71F04795880F35
:1011500097FB991F61F09F3F79F0879508951216CC
:1011600013061406551FF2CF4695F1DF08C0161678
:1011700017061806991FF1CF869571056105089429
:101180000895E894BB2766277727CB0197F9089540
:101190000E94530808F48FEF08950E94E0080C9411
:1011A0008E080E94800838F00E94870820F095235E
:1011B00011F00C9477080C947D0811240C94C2084B
:1011C0000E949F0870F3959FC1F3950F50E0551F43
:1011D000629FF001729FBB27F00DB11D639FAA278C
:1011E000F00DB11DAA1F649F6627B00DA11D661FDB
:1011F000829F2227B00DA11D621F739FB00DA11DFC
:10120000621F839FA00D611D221F749F3327A00DB5
:10121000611D231F849F600D211D822F762F6A2F51
:1012200011249F5750409AF0F1F088234AF0EE0FB6
:10123000FF1FBB1F661F771F881F91505040A9F7E3
:101240009E3F510580F00C9477080C94C2085F3FD4
:10125000E4F3983ED4F3869577956795B795F7951F
:10126000E7959F5FC1F7FE2B880F911D9695879597
:1012700097F908950E945308880B990B0895A1E2ED
:101280001A2EAA1BBB1BFD010DC0AA1FBB1FEE1F00
:10129000FF1FA217B307E407F50720F0A21BB30B4B
:1012A000E40BF50B661F771F881F991F1A9469F7C7
:1012B00060957095809590959B01AC01BD01CF0123
:1012C0000895052E97FB1EF400940E94780957FD9F
:1012D00007D00E943F0907FC03D04EF40C94780914
:1012E00050954095309521953F4F4F4F5F4F089552
:1012F00090958095709561957F4F8F4F9F4F089582
:10130000EE0FFF1F0590F491E02D09940F931F93AA
:10131000CF93DF938230910510F482E090E0E0916A
:10132000FF01F091000230E020E0B0E0A0E0309753
:1013300099F42115310509F44AC0281B390B2430D2
:101340003105D8F58A819B816115710589F1FB0111
:1013500093838283FE0111C04081518102811381F8
:1013600048175907E0F04817590799F4109761F0AA
:1013700012960C93129713961C933296CF01DF911D
:10138000CF911F910F9108950093FF0110930002D8
:10139000F4CF2115310551F04217530738F0A90158
:1013A000DB019A01BD01DF01F801C1CFEF01F9CFE7
:1013B000909300028093FF01CDCFFE01E20FF31F57
:1013C000819391932250310939832883D7CF20917B
:1013D000FD013091FE01232B41F420910201309157
:1013E00003013093FE012093FD0120910001309113
:1013F00001012115310541F42DB73EB7409104019B
:1014000050910501241B350BE091FD01F091FE0187
:10141000E217F307A0F42E1B3F0B2817390778F0CB
:10142000AC014E5F5F4F2417350748F04E0F5F1F2A
:101430005093FE014093FD01819391939FCFF0E083
:10144000E0E09CCFCF93DF930097E9F0FC01329767
:1014500013821282A091FF01B0910002ED0130E0F1
:1014600020E01097A1F420813181820F931F2091F9
:10147000FD013091FE012817390709F061C0F09392
:10148000FE01E093FD01DF91CF910895EA01CE17AF
:10149000DF07E8F54A815B819E0141155105B1F7EF
:1014A000E901FB83EA8349915991C40FD51FEC17D9
:1014B000FD0761F4808191810296840F951FE901F7
:1014C00099838883828193819B838A83F0E0E0E023
:1014D00012968D919C9113970097B9F52D913C919F
:1014E0001197CD010296820F931F2091FD0130913B
:1014F000FE012817390739F6309751F5109200028E
:101500001092FF01B093FE01A093FD01BCCFD383E5
:10151000C28340815181840F951FC817D90761F498
:101520004E5F5F4F88819981480F591F51834083D7
:101530008A819B81938382832115310509F0B0CF85
:10154000F0930002E093FF019ECFFD01DC01C0CFCC
:1015500013821282D7CFF894FFCF000001028000DF
:10156000000000000402640191015102C201A001C7
:10157000B401000000007102A4046E616E00696E87
:1015800066006F7666000D0A0052656164696E67D9
:10159000733A0066697273743A00617665726167C6
:0415A000653A0000A8
:107E0000112484B714BE81FFF0D085E080938100F7
:107E100082E08093C00088E18093C10086E0809377
:107E2000C20080E18093C4008EE0C9D0259A86E02C
:107E300020E33CEF91E0309385002093840096BBD3
:107E4000B09BFECF1D9AA8958150A9F7CC24DD24C4
:107E500088248394B5E0AB2EA1E19A2EF3E0BF2EE7
:107E6000A2D0813461F49FD0082FAFD0023811F036
:107E7000013811F484E001C083E08DD089C08234E0
:107E800011F484E103C0853419F485E0A6D080C0E4
:107E9000853579F488D0E82EFF2485D0082F10E0AE
:107EA000102F00270E291F29000F111F8ED06801E7
:107EB0006FC0863521F484E090D080E0DECF843638
:107EC00009F040C070D06FD0082F6DD080E0C81688
:107ED00080E7D80618F4F601B7BEE895C0E0D1E017
:107EE00062D089930C17E1F7F0E0CF16F0E7DF06D8
:107EF00018F0F601B7BEE89568D007B600FCFDCFD4
:107F0000A601A0E0B1E02C9130E011968C91119780
:107F100090E0982F8827822B932B1296FA010C0160
:107F200087BEE89511244E5F5F4FF1E0A038BF0790
:107F300051F7F601A7BEE89507B600FCFDCF97BE46
:107F4000E89526C08437B1F42ED02DD0F82E2BD052
:107F50003CD0F601EF2C8F010F5F1F4F84911BD097
:107F6000EA94F801C1F70894C11CD11CFA94CF0C13
:107F7000D11C0EC0853739F428D08EE10CD085E9AC
:107F80000AD08FE07ACF813511F488E018D01DD067
:107F900080E101D065CF982F8091C00085FFFCCF94
:107FA0009093C60008958091C00087FFFCCF809118
:107FB000C00084FD01C0A8958091C6000895E0E648
:107FC000F0E098E1908380830895EDDF803219F02E
:107FD00088E0F5DFFFCF84E1DECF1F93182FE3DFCA
:107FE0001150E9F7F2DF1F91089580E0E8DFEE27F6
:047FF000FF270994CA
:027FFE00040479
:00000001FF
